:100000000C9463000C948B000C948B000C948B006C
:100010000C948B000C948B000C948B000C940E05AC
:100020000C948B000C948B000C948B000C940C069D
:100030000C948B000C948B000C948B000C948B0014
:100040000C94C2050C948B000C9490050C946A05DA
:100050000C948B000C948B000C948B000C948B00F4
:100060000C948B000C948B000000000024002700EF
:100070002A0000000008000201000003040700003D
:1000800000000000000000000000250028002B00F8
:1000900002000000002300260029000404040404D8
:1000A0000404040202020202020303030303030125
:1000B00002040810204080010204081020010204FC
:1000C000081020000D0711241FBECFEFD8E0DEBFBF
:1000D000CDBF11E0A0E0B1E0E2ECF8E102C0059094
:1000E0000D92AA35B107D9F722E0AAE5B1E001C027
:1000F0001D92A635B207E1F710E0C3E6D0E004C0D8
:100100002197FE010E94590CC236D107C9F70E94FF
:1001100097070C945F0C0C9400008F929F92AF9203
:10012000BF92FF920F931F93CF93DF93F0903B0208
:100130002BE02F1508F44CC020913D0208E512E099
:10014000021B110927FD1395000F111F000F111F2E
:1001500020913C02C8E8D0E0C21BD10927FDD3950D
:10016000CC0FDD1FCC0FDD1F4E010D2E000CAA0899
:10017000BB089801012E000C440B550B28193909B6
:100180004A095B09DC010E94BB0A24EB30E040E035
:1001900050E00E94910A820E931EA41EB51E8C167A
:1001A0009D062CF0E801801691060CF4E4012297DC
:1001B000CC0FDD1F2FB7F8948F2D90E0FC01EE0FD0
:1001C000FF1FE80FF91FEA5EFD4FD283C1832FBFE7
:1001D000DF91CF911F910F91FF90BF90AF909F90B3
:1001E0008F900895AF92BF92CF92DF92EF92FF92DD
:1001F0000F931F93CF93DF936C017B018B01040F4F
:10020000151FEB015E01AE18BF08C017D10759F0EA
:100210006991D601ED91FC910190F081E02DC6012C
:100220000995892B79F7C501DF91CF911F910F9126
:10023000FF90EF90DF90CF90BF90AF900895FC01BA
:10024000538D448D252F30E0842F90E0821B930B3B
:10025000541710F0CF96089501970895FC01918DE1
:10026000828D981761F0A28DAE0FBF2FB11D5D96E4
:100270008C91928D9F5F9F73928F90E008958FEF86
:100280009FEF0895FC01918D828D981731F0828D3A
:10029000E80FF11D858D90E008958FEF9FEF089591
:1002A000FC01918D228D892F90E0805C9F4F821BF5
:1002B00091098F739927089589E791E00E94500171
:1002C00021E0892B09F420E0822F089580E090E05E
:1002D000892B29F00E945C0181110C940000089583
:1002E000FC01A48DA80FB92FB11DA35ABF4F2C91AB
:1002F000848D90E001968F739927848FA689B789A2
:100300002C93A089B1898C91837080648C93938D98
:10031000848D981306C00288F389E02D80818F7D3B
:1003200080830895EF92FF920F931F93CF93DF93F3
:10033000EC0181E0888F9B8D8C8D98131AC0E88921
:10034000F989808185FF15C09FB7F894EE89FF89F0
:100350006083E889F98980818370806480839FBF8E
:1003600081E090E0DF91CF911F910F91FF90EF908E
:100370000895F62E0B8D10E00F5F1F4F0F7311279E
:10038000E02E8C8D8E110CC00FB607FCFACFE889D9
:10039000F989808185FFF5CFCE010E947001F1CFF0
:1003A000EB8DEC0FFD2FF11DE35AFF4FF0829FB74D
:1003B000F8940B8FEA89FB8980818062CFCFCF933D
:1003C000DF93EC01888D8823B9F0AA89BB89E8897D
:1003D000F9898C9185FD03C0808186FD0DC00FB623
:1003E00007FCF7CF8C9185FFF2CF808185FFEDCFA1
:1003F000CE010E947001E9CFDF91CF91089590E086
:10040000FC01EE58FF4F2491FC01E155FF4F349160
:10041000FC01E556FF4FE491EE23C9F0222339F0A9
:10042000233001F1A8F4213019F1223029F1F0E054
:10043000EE0FFF1FEA57FF4FA591B4918FB7F894C5
:10044000EC91611126C030953E233C938FBF0895F7
:100450002730A9F02830C9F0243049F78091800076
:100460008F7D03C0809180008F7780938000DFCFE5
:1004700084B58F7784BDDBCF84B58F7DFBCF809132
:10048000B0008F778093B000D2CF8091B0008F7D85
:10049000F9CF3E2BDACF9091000189130BC0E0E930
:1004A000F0E0E4919FEF90930001E13049F028F0F3
:1004B000E23061F060E00C94FF0110926E00FACF20
:1004C00090916F009D7F90936F00F4CF909170009A
:1004D0009D7F9093700091E09093B0009091B10057
:1004E000987F94609093B1001092B300E3CFCF93C4
:1004F000DF9390E0FC01E155FF4F249185569F4F1B
:10050000FC0184918823D1F090E0880F991FFC01B1
:10051000E859FF4FA591B491FC01EA57FF4FC591EF
:10052000D49161110EC09FB7F8948C91E22FE095A1
:100530008E238C932881E223E8839FBFDF91CF91A4
:1005400008958FB7F894EC91E22BEC938FBFF6CF20
:100550003FB7F8948091600190916101A091620190
:10056000B091630126B5A89B05C02F3F19F00196F5
:10057000A11DB11D3FBFBA2FA92F982F8827BC01FD
:10058000CD01620F711D811D911D42E0660F771F25
:10059000881F991F4A95D1F708958F929F92AF9225
:1005A000BF92CF92DF92EF92FF924B015C010E94CB
:1005B000A8026B017C010E94A8026C197D098E09BA
:1005C0009F09683E734081059105A8F321E0821AD6
:1005D0009108A108B10888EEC80E83E0D81EE11C7E
:1005E000F11C81149104A104B10429F7FF90EF904C
:1005F000DF90CF90BF90AF909F908F900895089517
:1006000090E080E00895CF93DF93EC0160E08E816D
:100610000E94FF0161E08E810E94FF0160E08E81F7
:100620000E94FF018BE891E00197F1F7DF91CF91F4
:100630000895CF92DF92EF92FF920F931F93CF9383
:10064000DF936C017C0187E0E80EF11CD0E0C0E094
:10065000062F10E0B8010C2E02C0759567950A941C
:10066000E2F76170F70181917F010E94FF012196FD
:10067000C430D10579F7C601DF91CF911F910F9159
:10068000FF90EF90DF90CF900C940303CF92DF9216
:10069000EF92FF920F931F93CF93DF93EC01F62E0F
:1006A000642F8C810E94FF018D818F3F19F060E0E3
:1006B0000E94FF010F2D10E08F8584FF25C06E0181
:1006C00087E0C80ED11CF12CE12CB8010E2C02C021
:1006D000759567950A94E2F76170F60181916F0153
:1006E0000E94FF01FFEFEF1AFF0A88E0E816F1040D
:1006F00061F7CE01DF91CF911F910F91FF90EF90A5
:10070000DF90CF900C940303B80184E07595679552
:100710008A95E1F7CE010E9419036F2DCE01DF917A
:10072000CF911F910F91FF90EF90DF90CF900C949D
:10073000190340E0682F8EE392E00C94460381E0B9
:100740000E9499038BE39FE10197F1F70895CF93FE
:10075000DF93823029F490914D02986090934D027E
:10076000809351021092520280E48093530280E100
:100770008093540280E58093550261E080914202AB
:100780000E947702809143028F3F19F061E00E943E
:10079000770261E0809144020E947702CEE3D2E0CA
:1007A0009E012E53324080914D0284FD0BC084E0A7
:1007B00090E021962817390744F461E08E810E9469
:1007C0007702EECF88E090E0F4CF8BE39DE00197D5
:1007D000F1F760E0809142020E94FF0160E08091A9
:1007E00044020E94FF01809143028F3F19F060E0B4
:1007F0000E94FF0180914D0284FD34C063E08EE3CE
:1008000092E00E941903CBE4D6E4CE010197F1F700
:1008100063E08EE392E00E9419032197F1F763E011
:100820008EE392E00E94190383E592E00197F1F7CD
:1008300062E08EE392E00E94190380914D02806293
:100840000E94990384E080934E028CE00E949903F9
:100850000E949F0382E080934F0286E0DF91CF9158
:100860000C94990380620E9499038BE496E40197AB
:10087000F1F780914D0280620E94990383E592E036
:100880000197F1F780914D0280620E949903D5CFC4
:1008900041E00E94460381E090E008950F931F938A
:1008A00090E0FC01E155FF4F6491FC01E556FF4FDC
:1008B000E491F0E0EE0FFF1FEF56FF4F859194910A
:1008C00000E412E42FE030E0462F0E94C8066115D4
:1008D00071058105910529F06F5F7F4F8F4F9F4F05
:1008E0009F701F910F910895FB0101900020E9F77F
:1008F0003197AF01461B570BDC01ED91FC91028053
:10090000F381E02D09944F925F926F927F928F92C4
:100910009F92AF92BF92CF92DF92EF92FF920F938E
:100920001F93CF93DF93CDB7DEB7A1970FB6F8949F
:10093000DEBF0FBECDBF8C016B01770FEE08FF0845
:10094000F7FE49C0DC01ED91FC910190F081E02DB2
:100950006DE209955C0122273327A9012C193D0975
:100960004E095F0919A2FE01B1967F019AE0492E56
:10097000512C612C712CCA01B901A30192010E9472
:10098000C30A605DD7016E937D01211531054105D4
:10099000510589F790E080E0109721F0BD01C80172
:1009A0000E9474048A0D9B1DA1960FB6F894DEBFB9
:1009B0000FBECDBFDF91CF911F910F91FF90EF90B0
:1009C000DF90CF90BF90AF909F908F907F906F906F
:1009D0005F904F900895A701960119A2FE01B1966C
:1009E0007F018AE0882E912CA12CB12CCA01B9017B
:1009F000A50194010E94C30A605DD7016E937D0139
:100A0000211531054105510589F790E080E01097E7
:100A100059F2BD01C8010E947404C6CF1F920F9203
:100A20000FB60F9211242F933F934F935F936F93C1
:100A30007F938F939F93AF93BF93EF93FF93809197
:100A4000690190916A01A0916B01B0916C01892BB1
:100A50008A2B8B2BD1F190916401E0916501F0918B
:100A600066018081892780838091690190916A0164
:100A7000A0916B01B0916C01181619061A061B069D
:100A80009CF48091690190916A01A0916B01B091F1
:100A90006C010197A109B1098093690190936A01E2
:100AA000A0936B01B0936C01FF91EF91BF91AF9157
:100AB0009F918F917F916F915F914F913F912F9176
:100AC0000F900FBE0F901F901895809100010E940B
:100AD0004B02EACF1F920F920FB60F9211242F9361
:100AE0003F934F935F936F937F938F939F93AF93B6
:100AF000BF93EF93FF9389E791E00E947001FF910C
:100B0000EF91BF91AF919F918F917F916F915F9185
:100B10004F913F912F910F900FBE0F901F901895FE
:100B20001F920F920FB60F9211242F938F939F93C2
:100B3000EF93FF93E0918901F0918A018081E09128
:100B40008F01F091900182FD1BC0908180919201F4
:100B50008F5F8F7320919301821741F0E091920192
:100B6000F0E0E758FE4F958F80939201FF91EF914F
:100B70009F918F912F910F900FBE0F901F901895FE
:100B80008081F4CF1F920F920FB60F9211242F93F2
:100B90003F938F939F93AF93BF9380915C0190910C
:100BA0005D01A0915E01B0915F0130915B0123E096
:100BB000230F2D3758F50196A11DB11D20935B0120
:100BC00080935C0190935D01A0935E01B0935F01FF
:100BD0008091600190916101A0916201B0916301E7
:100BE0000196A11DB11D8093600190936101A093B6
:100BF0006201B0936301BF91AF919F918F913F913B
:100C00002F910F900FBE0F901F90189526E8230F7D
:100C10000296A11DB11DD2CF1F920F920FB60F9257
:100C200011242F933F934F935F936F937F938F93F1
:100C30009F93AF93BF93CF93DF93EF93FF938091F5
:100C40005A01C0913A02D0E087FF24C0109285007B
:100C50001092840080915A018F5F80935A01809195
:100C60005A01082E000C990B8C179D0724F48091D3
:100C70005A018C30C4F180918400909185000496D3
:100C800080349C4908F47AC080918400909185005A
:100C9000049676C080915A01082E000C990B8C178F
:100CA0009D07C4F6E0915A018E2FEE0F990BFC01BF
:100CB000EE0FFF1FE80FF91FEA5EFD4F808186FFF0
:100CC000C9CFE0915A018E2FEE0F990BFC01EE0F68
:100CD000FF1FE80FF91FEA5EFD4F808160E08F7310
:100CE0000E94FF01B7CF2091840030918500E091F0
:100CF0005A018E2FEE0F990BFC01EE0FFF1FE80F2C
:100D0000F91FEA5EFD4F81819281820F931F9093BC
:100D1000890080938800E0915A018E2FEE0F990B85
:100D2000FC01EE0FFF1FE80FF91FEA5EFD4F808107
:100D300086FF11C0E0915A018E2FEE0F990BFC0136
:100D4000EE0FFF1FE80FF91FEA5EFD4F808161E0A3
:100D50008F730E94FF01FF91EF91DF91CF91BF91BF
:100D6000AF919F918F917F916F915F914F913F9143
:100D70002F910F900FBE0F901F90189580E49CE963
:100D800090938900809388008FEF80935A01E3CF7E
:100D9000CF92DF92EF92FF920F931F93E82FF92FDC
:100DA00005C0015011092109310961F19081962393
:100DB0009417B9F305C0015011092109310911F146
:100DC000908196239413F7CFC12CD12CE12CF12CD8
:100DD0000AC08FEFC81AD80AE80AF80A0C151D05D0
:100DE0002E053F0579F080818623841791F36C2DC1
:100DF0007D2D8E2D9F2D1F910F91FF90EF90DF90F5
:100E0000CF90089560E070E080E090E01F910F9136
:100E1000FF90EF90DF90CF900895CF9310927C01D8
:100E200010927B0188EE93E0A0E0B0E080937D011A
:100E300090937E01A0937F01B093800185E091E0C3
:100E400090937A018093790185EC90E090938601EC
:100E50008093850184EC90E09093880180938701D2
:100E600080EC90E090938A018093890181EC90E07E
:100E700090938C0180938B0182EC90E090938E0193
:100E800080938D0186EC90E09093900180938F0188
:100E90001092920110929301109294011092950178
:100EA000109241021092400287E191E090933F023C
:100EB00080933E0287E080934202CFEFC0934302CB
:100EC00086E08093440285E08093450284E080932D
:100ED000460283E08093470282E0809348021092AA
:100EE000490210924A0210924B0210924C02109248
:100EF0004D0281E00E94A70380913A028C30A0F459
:100F000091E0980F90933A0280933B0290E0FC01AD
:100F1000EE0FFF1FE80FF91FEA5EFD4F88EB9BE025
:100F200092838183CF910895C0933B02FBCF789445
:100F300084B5826084BD84B5816084BD85B58260DE
:100F400085BD85B5816085BD80916E00816080938F
:100F50006E001092810080918100826080938100F8
:100F60008091810081608093810080918000816008
:100F7000809380008091B10084608093B100809163
:100F8000B00081608093B00080917A00846080938B
:100F90007A0080917A00826080937A0080917A0052
:100FA000816080937A0080917A00806880937A00D3
:100FB0001092C100E0918901F0918A0182E0808362
:100FC000E0918501F09186011082E0918701F09116
:100FD00088018FEC808310929101E0918D01F09156
:100FE0008E0186E08083E0918B01F0918C018081FD
:100FF00080618083E0918B01F0918C018081886019
:101000008083E0918B01F0918C01808180688083E6
:10101000E0918B01F0918C0180818F7D808382E053
:101020000E94A70361E089E00E94770260E088E007
:101030000E94770261E08BE00E94770260E08AE024
:101040000E94770280913B028C3008F051C061E031
:101050008CE00E94770280913B02282F30E0F9015A
:10106000EE0FFF1FE20FF31FEA5EFD4F9081907CB1
:101070009C60908310923C0210923D022CE0622F03
:101080000E94250C829FB001112430E020E0AB01CA
:10109000420F531FFA01EE0FFF1FE40FF51FEA5E28
:1010A000FD4F908196FD16C02F5F3F4F2C303105CC
:1010B00071F781110FC01092800082E0809381004F
:1010C0001092850010928400B19A80916F00826026
:1010D00080936F00E0913B028E2F90E0FC01EE0FB9
:1010E000FF1FE80FF91FEA5EFD4F80818064808357
:1010F00043E0C42ED12C53E2A52EB12C6AE0862EFB
:10110000912C70E9272E70E0372E44244A94542CF9
:10111000320108EA10E03CEBE32E30E0F32E60E011
:101120008BE00E94FF01C6010197F1F761E08BE0BF
:101130000E94FF01C5010197F1F760E08BE00E947A
:10114000FF018AE00E944E040E942C0B26E933E442
:101150004BE05DE30E94900B20E030E040E05FE375
:101160000E94900B0E94F40ACB01B4010E94310C42
:1011700070937801609377016FE171E089E791E006
:101180000E947404609177017091780189E791E081
:101190000E94830468E271E089E791E00E94740490
:1011A0006BE271E089E791E00E94740464E670E00C
:1011B00080E090E00E94CD028091770190917801CB
:1011C000843691050CF083C00E949F03E1E080917A
:1011D00051028111E0E0E195F0E0E25CFD4F84898D
:1011E00080680E9499036EE271E08EE392E00E94B3
:1011F0007404809177019091780164E670E0681B37
:10120000790B8EE392E00E94830466E371E08EE343
:1012100092E00E94740461E089E00E94770260E03D
:1012200089E00E94FF01C6010197F1F761E089E0C2
:101230000E94FF01C5010197F1F760E089E00E947B
:10124000FF0160E088E00E94770288E00E944E047F
:101250000E942C0B26E933E44BE05DE30E94900BE7
:1012600020E030E040E05FE30E94900B0E94F40A2F
:10127000CB01B4010E94310C70937601609375012B
:1012800063E571E089E791E00E9474046091750163
:101290007091760189E791E00E94830468E271E031
:1012A00089E791E00E947404809175019091760124
:1012B0000C970CF033C180917701909178018436BE
:1012C00091058CF584EB90E00E948D0006C10E9490
:1012D0009F03E1E0809151028111E0E0E195F0E0AF
:1012E000E25CFD4F848980680E94990368E371E0A5
:1012F0008EE392E00E9474046CE271E080E090E082
:101300000E94CD02E0915102E23058F4E150F0E049
:10131000E25CFD4F848980680E94990365E471E076
:1013200076CFE1E0F4CF8AE590E00E948D008091D5
:1013300000018D3029F5F101C491C7FDBFC061E006
:101340008DE00E947702CC2309F488C0C23009F0F6
:1013500099C08091B100887F86608093B1008BE94D
:101360008093B3004092690150926A0160926B01D0
:1013700070926C01809170008260809370009EC0BA
:101380008F3F09F09BC08DE080930001F101C49173
:10139000CF3F09F493C0C13019F150F0C23009F4C5
:1013A0003CC0C7FD8BC061E08DE00E947702CECFCC
:1013B00014BC15BC84B5826084BD85B5816085BDD3
:1013C000F8018491E82FF0E0EE0FFF1FEA57FF4F7E
:1013D00085919491F701849180936801C0E0AFCF2B
:1013E000109280001092810080918100886080932B
:1013F000810080918100816080938100F801849157
:10140000E82FF0E0EE0FFF1FEA57FF4F8591949110
:10141000F70184918093670192CF1092B0001092EF
:10142000B1008091B00082608093B0008091B100E3
:1014300081608093B100F8018491E82FF0E0EE0F15
:10144000FF1FEA57FF4F8591949190936601809317
:101450006501F70184918093640171CF85B5887F20
:10146000846085BD8BE987BD409271015092720105
:10147000609273017092740180916E00826080931B
:101480006E001CC0C13009F041C080918100887F8E
:101490008160809381008FE39CE990938900809321
:1014A000880040926D0150926E0160926F017092BF
:1014B000700180916F00826080936F0064EF71E033
:1014C00080E090E00E94CD028DE00E944B0264EF2C
:1014D00071E080E090E00E94CD026BE271E089E76C
:1014E00091E00E94740464E670E080E090E00E9465
:1014F000CD02E0E0F0E0EF2B09F411CE0E945C0198
:10150000882309F406CE0E94000003CEC23021F0E9
:10151000C111D4CF8FE3A7CF8FE322CF8AE590E02C
:10152000D3CE052E97FB1EF400940E94A80A57FD07
:1015300007D00E94C30A07FC03D04EF40C94A80AFB
:1015400050954095309521953F4F4F4F5F4F0895EF
:1015500090958095709561957F4F8F4F9F4F08951F
:101560000E94E50AA59F900DB49F900DA49F800D49
:10157000911D11240895B7FF0C94B00A0E94B00A7F
:10158000821B930B0895A1E21A2EAA1BBB1BFD011F
:101590000DC0AA1FBB1FEE1FFF1FA217B307E40752
:1015A000F50720F0A21BB30BE40BF50B661F771FAA
:1015B000881F991F1A9469F760957095809590958A
:1015C0009B01AC01BD01CF010895A29FB001B39F63
:1015D000C001A39F700D811D1124911DB29F700D3C
:1015E000811D1124911D08950E94FB0A6894B11178
:1015F0000C948A0B08950E946F0B88F09F5798F007
:10160000B92F9927B751B0F0E1F0660F771F881F07
:10161000991F1AF0BA95C9F714C0B13091F00E9421
:10162000890BB1E008950C94890B672F782F8827D8
:10163000B85F39F0B93FCCF3869577956795B39548
:10164000D9F73EF490958095709561957F4F8F4FB7
:101650009F4F0895E89409C097FB3EF490958095BC
:10166000709561957F4F8F4F9F4F9923A9F0F92F68
:1016700096E9BB279395F695879577956795B795E6
:10168000F111F8CFFAF4BB0F11F460FF1BC06F5FCC
:101690007F4F8F4F9F4F16C0882311F096E911C0DE
:1016A000772321F09EE8872F762F05C0662371F0FF
:1016B00096E8862F70E060E02AF09A95660F771F13
:1016C000881FDAF7880F9695879597F9089557FD43
:1016D0009058440F551F59F05F3F71F04795880FA0
:1016E00097FB991F61F09F3F79F087950895121637
:1016F00013061406551FF2CF4695F1DF08C01616E3
:1017000017061806991FF1CF869571056105089493
:101710000895E894BB2766277727CB0197F90895AA
:101720000E94A30B0C94140C0E94060C38F00E942B
:101730000D0C20F0952311F00C94FD0B0C94030C70
:1017400011240C948A0B0E94670B70F3959FC1F3D0
:10175000950F50E0551F629FF001729FBB27F00D5F
:10176000B11D639FAA27F00DB11DAA1F649F6627B4
:10177000B00DA11D661F829F2227B00DA11D621F03
:10178000739FB00DA11D621F839FA00D611D221FBD
:10179000749F3327A00D611D231F849F600D211DA1
:1017A000822F762F6A2F11249F5750409AF0F1F024
:1017B00088234AF0EE0FFF1FBB1F661F771F881F8D
:1017C00091505040A9F79E3F510580F00C94FD0BBD
:1017D0000C948A0B5F3FE4F3983ED4F3869577959B
:1017E0006795B795F795E7959F5FC1F7FE2B880F33
:1017F000911D9695879597F9089597F99F6780E8C9
:1018000070E060E008959FEF80EC089500240A9452
:101810001616170618060906089500240A941216CB
:101820001306140605060895092E0394000C11F4FE
:10183000882352F0BB0F40F4BF2B11F460FF04C0AB
:101840006F5F7F4F8F4F9F4F0895991B79E004C0C2
:10185000991F961708F0961B881F7A95C9F78095EF
:10186000089597FB072E16F4009407D077FD09D052
:101870000E94450C07FC05D03EF4909581959F4F42
:101880000895709561957F4F0895AA1BBB1B51E188
:1018900007C0AA1FBB1FA617B70710F0A61BB70BE0
:1018A000881F991F5A95A9F780959095BC01CD0185
:1018B0000895EE0FFF1F0590F491E02D0994F89420
:0218C000FFCF58
:1018C200FF000000009201F2001F01DF0150012E13
:1018D200014201000000004804F2000003FF024C34
:1018E20069717569643A2000436D000D0A004C6904
:1018F200717569643A002500424F54544C452045A5
:101902004D50545900504C4541534520524546498B
:0A1912004C4C0048616E643A20005E
:00000001FF
